:100000000C941C120C944D120C944D120C944D1225
:100010000C944D120C944D120C944D120C944D12E4
:100020000C944D120C944D120C944D120C944D12D4
:100030000C944D120C944D120C944D120C944D12C4
:100040000C944D120C944D120C944D120C944D12B4
:100050000C944D120C944D120C944D120C944221A0
:100060000C944D120C940C210C94E2200C944D1223
:100070000C944D120C944D120C944D120C944D1284
:100080000C944D120C944D120C944D120C944D1274
:100090000C944D120C944D120C944D120C948C2116
:1000A0000C944D120C944D120C944D120C944D1254
:1000B0000C944D120C944D120C944D120C944D1244
:1000C0000C944D120C944D120C944D120C944D1234
:1000D0000C944D120C944D120C944D120C944D1224
:1000E0000C944D120C9432140C94E1120C943714AD
:1000F0000C94FD130C9453120C9412140C94B3171B
:100100000C94A5120C9416140C94F5280C94381425
:100110000C9409140C9420140C943B130C94991710
:100120000C94CB170C94461B0C94861B0C949D12BC
:100130000C949E160C942E140C941C140C945212B5
:100140000C94B0220C94A4120C9405140C94CE17A9
:100150000C9488130C940C140C94D0170C94F51276
:100160000C948C1C0C943C140C94371B0C9424148D
:100170000C94BF170C9450120C94B9160C94361BA7
:100180000C944F120C94D2120C94EE170C942A1467
:100190000C9403130C9401140C94591B0C94F71336
:1001A0000C94651C01050800FF060121023520FFA3
:1001B000FF07FF06FF09005022165680808080004E
:1001C00080153353A0A0A00257575050F850F85054
:1001D000500257572070A07028702013355580A00A
:1001E00040A02002475740A0A040A0A05025135394
:1001F0008080801226564080808080401226568063
:1002000040404040800245559060F0609002555556
:100210002020F82020113353604080044151F01118
:10022000335340E040024656101020408080123682
:100230005640A0A0A0A04012365640C0404040E02A
:100240000246566090106080F0024656F020601022
:1002500090600246562060A0F02020024656F080B2
:10026000E01090600246566080E090906002465632
:10027000F01020204040024656609060909060024E
:100280004656609090701060122555C0C000C0C0E6
:1002900011365660600060408012365620408080E3
:1002A0004020034353F000F0123656804020204097
:1002B0008012365640A020400040015858304898DF
:1002C000A8A8904030024656609090F09090024668
:1002D00056E090E09090E0024656609080809060FA
:1002E000024656E090909090E0024656F080E08002
:1002F00080F0024656F080E0808080024656609092
:1003000080B090600246569090F0909090123656D1
:10031000E040404040E002465670202020A04002CD
:10032000465690A0C0A0A090024656808080808053
:10033000F002465690F0F090909002465690D0F021
:10034000B0B090024656609090909060024656E0A1
:100350009090E08080014757609090D0B06010028C
:100360004656E09090E09090024656609040209073
:1003700060123656E0404040404002465690909011
:100380009090600246569090909060600246569021
:100390009090F0F0900246569090606090900256D7
:1003A00056888850202020024656F010204080F0C9
:1003B000123656E080808080E002465680804020E1
:1003C0001010123656E020202020E016325240A0B5
:1003D000014151F0162252804002445470909070B6
:1003E0000246568080E09090E01234546080806035
:1003F00002465610107090907002445460B0C06075
:10040000024656205040E040400145556090701033
:10041000600246568080E09090901236564000C0B0
:100420004040E01137572000202020A040024656CF
:10043000808090E09090123656C040404040E002EC
:100440005454D0A8A8A8024454E090909002445478
:1004500060909060014555E090E0808001455570C6
:1004600090701010024454A0D0808012345460C0A8
:1004700020C00246564040E0405020024454909034
:100480009070123454A0A0A04002545488A8A850E0
:1004900002445490606090014555909070906002C5
:1004A0004454F02040F0024757304020C0204030F4
:1004B000221656808080808080024757C0204030BE
:1004C0004020C006425250A0FFFFFFFFFFFFFFFF8A
:1004D000FFFFFFFFFFFFFFFFFFFFFFFFFFFFFFFF2C
:1004E000FFFFFFFFFFFFFFFFFF09005022165680AE
:1004F00000808080800146562070A0A070200246B7
:10050000562050E04050A002555588705070880227
:1005100056568850F820F820221757808080008097
:1005200080800247577080E0907010E0173151A032
:1005300002565670A8C8C8A87014355560A060004F
:10054000E003435350A050123353E02020143151A4
:10055000E002565670E8D8E8D870173151E01533EC
:100560005340A04012355540E04000E0143555405E
:10057000A02040E0143555C020C020C016225240B3
:1005800080014555909090E08002565678E8E868E2
:10059000282824115180112252408014355540C022
:1005A0004040E014355540A04000E0034353A050C4
:1005B000A0024757808080A060F0200247578080CB
:1005C000A0D010207002475780408060A0F0201219
:1005D000365640004080A04002475740206090F0CF
:1005E000909002475720406090F0909002475760EB
:1005F000906090F0909002475750A06090F09090DB
:1006000002475790006090F09090024757609060CA
:1006100090F0909002465670A0A0F0A0B00147570D
:10062000609080809060400247574020F080E080DA
:10063000F00247572040F080E080F002475760907A
:10064000F080E080F00247579000F080E080F012E8
:1006500037578040E0404040E01237572040E040AC
:100660004040E012375740A0E0404040E01237578A
:10067000A000E0404040E00256567048E84848700C
:1006800002475750A090D0B090900247574020604A
:100690009090906002475720406090909060024791
:1006A000576090609090906002475750A060909083
:1006B000906002475790006090909060123353A072
:1006C00040A002465670B0B0D0D0E002475740205C
:1006D00090909090600247572040909090906002D8
:1006E000475760909090909060024757900090908C
:1006F00090906002575710208850202020024656C4
:1007000080E09090E0800246566090A0A090A00209
:10071000475740200070909070024757204000706B
:100720009090700247572050007090907002475789
:1007300050A00070909070024656500070909070DB
:1007400002475760906070909070025454F068B007
:100750007811355560808060400247574020006026
:10076000B0C06002475720400060B0C060024757E9
:1007700060900060B0C060024656500060B0C0603B
:10078000123757804000C04040E0123757204000E9
:10079000C04040E012375740A000C04040E0123651
:1007A00056A000C04040E0024757A040A010709003
:1007B0006002475750A000E09090900247574020B9
:1007C0000060909060024757204000609090600267
:1007D00047576090006090906002475750A00060BB
:1007E000909060024656900060909060123555409F
:1007F00000E0004002445470B0D0E002475740206F
:1008000000909090700247572040009090907002A6
:1008100047576090009090907002465690009090DC
:1008200090700148582040009090709060014757A8
:100830008080E090E0808001475790009090709019
:100840006001060A00FE070136026820FFFE08FE6E
:1008500007FE0A0060221767808080808000801673
:100860003363A0A0A00257675050F850F8505002D0
:1008700057672070A07028702002576748A8502042
:1008800050A89002576740A0A040A8906826136324
:100890008080801237672040808080402012376738
:1008A000804020202040800355658850F850880300
:1008B00055652020F8202011336360408005516188
:1008C000F811336340E04002576708081020408069
:1008D0008002576720508888885020025767206020
:1008E000A0202020F8025767708808304080F80266
:1008F0005767F8081030088870025767103050901A
:10090000F81010025767F880B0C80888700257675F
:10091000304080B0C88870025767F8081010204037
:10092000400257677088887088887002576770889F
:10093000986808106011376740E0400040E04011BF
:10094000376740E0400060408012476710204080D9
:10095000402010045363F800F812476780402010CD
:1009600020408002576770881020200020025767BF
:10097000708898A8B0807002576720508888F888DF
:1009800088025767F04848704848F00257677088F7
:100990008080808870025767F04848484848F002D5
:1009A0005767F88080F08080F8025767F88080F001
:1009B00080808002576770888080988870025767AF
:1009C000888888F8888888123767E040404040402F
:1009D000E002576738101010109060025767889037
:1009E000A0C0A09088025767808080808080F80235
:1009F00057678888D8A88888880257678888C8A8D1
:100A00009888880257677088888888887002576736
:100A1000F08888F08080800158687088888888A86D
:100A20007008025767F08888F0A0908802576770B6
:100A3000888070088870025767F8202020202020C6
:100A400002576788888888888870025767888888EE
:100A500050505020025767888888A8A8D888025725
:100A600067888850205088880257678888502020DF
:100A70002020025767F80810204080F8123767E0FE
:100A80008080808080E002576780804020100808C6
:100A9000123767E02020202020E006536320508892
:100AA000015161F8282262804002556570087888FB
:100AB000780257678080B0C888C8B00255657088D2
:100AC000808870025767080868988898680255659A
:100AD0007088F88070025767304840F0404040000E
:100AE0005767788888780888700257678080B0C810
:100AF0008888881237674000C0404040E01049694C
:100B0000100030101010909060025767808088901D
:100B1000E09088123767C04040404040E002556591
:100B2000D0A8A8A888025565B0C8888888025565ED
:100B30007088888870005767B0C888C8B080800007
:100B4000576768988898680808025565B0C880801B
:100B50008002556570807008F00257674040F04091
:100B600040483002556588888898680255658888AD
:100B70005050200255658888A8A8500255658850B5
:100B800020508800576788889868088870025565E3
:100B9000F8102040F8124767304020C02040302233
:100BA000176780808080808080124767C020403037
:100BB0004020C006536348A890FFFFFFFFFFFFFFE0
:100BC000FFFFFFFFFFFFFFFFFFFFFFFFFFFFFFFF35
:100BD000FFFFFFFFFFFFFFFFFFFF0A006022176715
:100BE000800080808080800157672078A0A0A07856
:100BF00020025767304840E04048B0025565887091
:100C000050708801586888885020F82020202217CA
:100C100067808080008080800158687080E0904804
:100C2000380870193161A00257677088A8C8A88871
:100C3000701346667090B05000F0026565244890CD
:100C40004824144262F010154161F0025767708821
:100C5000E8C8C88870095161F816336340A04002A3
:100C600056662020F82020F815456560902040F059
:100C7000154565E0106010E028226240800156664C
:100C8000888888C8B08002576778E8E868282828EC
:100C900025116180202262408015356540C04040AA
:100CA000E01346666090906000F00265659048240D
:100CB000489001696940C04040E40C143C0401695B
:100CC0006940C04040E81404081C015969C0204034
:100CD00020C8182878080257672000202040887014
:100CE0000258684020708888F88888025868102068
:100CF000708888F888880258682050708888F8883A
:100D00008802586848B0708888F888880258685007
:100D100000708888F888880258682050708888F8A1
:100D200088880267673C50909CF0909C00596970DD
:100D3000888080808870204002586840F88080F069
:100D40008080F802586810F88080F08080F802589F
:100D50006820F88080F08080F802586850F8808021
:100D6000F08080F81238688040E040404040E01257
:100D700038682040E040404040E012386840A0E041
:100D800040404040E0123868A000E040404040E071
:100D9000025767F04848E84848F0025868285088E9
:100DA000C8A8988888025868402070888888887009
:100DB000025868102070888888887002586820500F
:100DC0007088888888700258682850708888888859
:100DD000700258685000708888888870025565884D
:100DE00050205088025767709898A8C8C870025859
:100DF0006840208888888888700258681020888811
:100E00008888887002586820500088888888700216
:100E10005868500088888888887002586810208830
:100E2000885020202002576780F088F08080800260
:100E30005767708890A09088B00258684020007072
:100E4000087888780258681020007008788878023E
:100E50005868205000700878887802586828500038
:100E60007008788878025767500070087888780290
:100E70005868205020700878887802656578147C5E
:100E8000907C0057677088808870204002586840C6
:100E900020007088F880700258681020007088F870
:100EA00080700258682050007088F8807002576780
:100EB00050007088F88070123868804000C0404050
:100EC00040E0123868408000C0404040E01238687E
:100ED00040A000C0404040E0123767A000C0404042
:100EE00040E0025767C030708888887002586828D0
:100EF0005000B0C8888888025868402000708888F0
:100F000088700258681020007088888870025868BD
:100F100020500070888888700258682850007088B7
:100F200088887002576750007088888870035565FC
:100F30002000F800200255657898A8C8F00258688B
:100F400040200088888898680258681020008888A7
:100F500088986802586820500088888898680257E6
:100F60006750008888889868005969102088889898
:100F70006808887000586880F0888888F080800051
:100F80005969500088889868088870000D15FEFA25
:100F90000901DE042020FFFD0CFC0AFD0000000911
:100FA0000001020909090300C0C0C0C0C08000C020
:100FB000C0050404090206D8D8D848070B0B09015C
:100FC000FF282828FE2828FE28282828060C0C0997
:100FD00001FF30307CCCC0F03C0CCCF83030070A3C
:100FE0000A0901006090926C106098242418070888
:100FF00008090100386060307ACCCC76020404091C
:101000000305C0C0C040040B0B0902FE306060C085
:10101000C0C0C0C0606030040B0B0902FEC060603D
:1010200030303030306060C005050509020420A86A
:10103000F870D8070707090101101010FE101010F2
:101040000304040902FE6060C08006010109010476
:10105000FC020202090300C0C0070C0C0900FE06D6
:10106000060C0C181830306060C0C0070A0A09016D
:1010700000386CC6C6C6C6C6C66C38060A0A09025F
:101080000030F030303030303030FC060A0A0901D0
:101090000078CCCC0C0C183060C0FC060A0A0901A0
:1010A0000078CC0C0C380C0C0CCC78070A0A09011F
:1010B000000C1C3C2C4CCC8CFE0C1E060A0A0901B0
:1010C00000FCC0C0F8CC0C0C0CCC78060A0A090154
:1010D000003C60C0D8ECCCCCCCCC78060A0A090124
:1010E00000FC8C0C18181818303030060A0A090158
:1010F0000078CCCCCC78CCCCCCCC78060A0A0901D0
:101100000078CCCCCCCCCC7C0C18F00207070903BF
:1011100000C0C0000000C0C00309090902FE6060F1
:101120000000006060C080080707090001071C700C
:10113000C0701C07070404090102FE0000FE080736
:1011400007090101E0380E030E38E006090909011C
:1011500000F8CC8C0C383000303007090909010048
:1011600078C49CB4A4B49EC0780909120900007C1C
:10117000001C0036003600220063007F006300F789
:1011800080080909090000FE6363637E636363FEF0
:101190000709090901003A66C6C0C0C0C0663C081C
:1011A0000909090000FC66636363636366FC080960
:1011B00009090000FF63636878686363FF08090931
:1011C000090000FF63636878686060F80909120924
:1011D00000003D006700C300C000C000CF80C30016
:1011E00063003F00090912090000F78063006300F3
:1011F00063007F00630063006300F780060909094C
:101200000100FC30303030303030FC090912090068
:10121000001F800600060006000600C600C600C6C5
:10122000007C00090912090000F70066006C0078D4
:10123000007C00660066006300F38008090909006D
:1012400000F860606060636363FF090912090000D1
:10125000E3806300770077006B006B00630063003E
:10126000F780090912090000E7806300730073002A
:101270006B006B0067006700F300080909090000B4
:101280003C66C3C3C3C3C3663C080909090000FE2A
:10129000636363667C6060F8080B0B0900FE3C66C4
:1012A000C3C3C3C3C3663C196E090912090000FE1B
:1012B0000063006300630066007C0066006300F367
:1012C000800709090901007ACEC6E07C0EC6E6BC9B
:1012D000080909090000FFDBDB18181818183C0979
:1012E0000912090000F78063006300630063006374
:1012F00000630063003E00090912090000F78063E3
:1013000000630063003600360036001C001C000934
:101310000912090000F78063006B006B006B007717
:1013200000770063006300080909090000E76666AA
:101330003C183C6666E70A091209FF00F3C06180A9
:10134000330033001E000C000C000C003F000709A6
:1013500009090100FEC6CC18183066C6FE040B0B46
:101360000902FEF0C0C0C0C0C0C0C0C0C0F0070CC1
:101370000C0901FEC0C06060303018180C0C060665
:10138000040B0B0902FEF03030303030303030309A
:10139000F00504040902052070D88809010209003B
:1013A000FEFF80030202090207C060080707090068
:1013B000007C06067EC6CE77080A0A090000E060B7
:1013C000606E7363636373EE0807070900003D678F
:1013D000C3C0C0633E080A0A0900000E060676CEA6
:1013E000C6C6C6CE770807070900003C66C3FFC023
:1013F000673E070A0A0901001E3030FC30303030E9
:1014000030FC080A0A0900FD77CEC6C6C6CE7606AD
:10141000067C090A14090000E000600060006E000C
:1014200073006300630063006300F780060A0A0923
:101430000100303000F03030303030FC050D0D0947
:1014400001FD181800781818181818181818F0083E
:101450000A0A090000E06060676C78786C66E7064D
:101460000A0A090100F03030303030303030FC09E9
:10147000070E090000DF006D806D806D806D806D4E
:1014800080ED8009070E090000EE00730063006321
:101490000063006300F7800807070900003C66C38B
:1014A000C3C3663C080A0A0900FDEE7363636373F5
:1014B0006E6060F0080A0A0900FD77CEC6C6C6CE87
:1014C0007606060F070707090100EE70606060608E
:1014D000FC0707070901007EC6C07C06C6FC070999
:1014E000090901006060FC60606060663C09070EED
:1014F000090000E700630063006300630067003BCE
:101500008009070E090000F780630063003600368B
:10151000001C001C000A070E09FF00E1C06D806D71
:10152000806D802D0033003300080707090000E7B5
:10153000663C183C66E7090A140900FDE380630075
:101540006300360036001C001C00180018007C00E8
:10155000060707090100FC8C183060C4FC040B0B63
:101560000902FE3060606060C06060606030020B45
:101570000B0903FEC0C0C0C0C0C0C0C0C0C0C00412
:101580000B0B0902FEC0606060603060606060C08C
:1015900006030309010364FC98FFFFFFFFFFFFFF41
:1015A000FFFFFFFFFFFFFFFFFFFFFFFFFFFFFFFF4B
:1015B000FFFFFFFFFFFFFFFFFFFF0000000900012B
:1015C0000209090903FEC0C00080C0C0C0C0C00637
:1015D0000A0A0901FF30307CCCC0C0CC783030071B
:1015E00009090901003C666060F8606066FC070656
:1015F00006090101C67CC6C67CC60A09120900009C
:10160000F3C0618033001E003F000C003F000C005F
:101610003F00020B0B0903FEC0C0C0C0C000C0C029
:10162000C0C0C0080B0B0900FF3E6260F08CE339BC
:101630000F06467C0402020902089090090810096E
:1016400000011C006300CD80D180D180CD8063007B
:101650001C00050707090202701878D86800F8070F
:101660000505090101366CD86C3607030309010230
:10167000FE0202060101090104FC0908100900012B
:101680003E006300D980D580D980D58063003E00BC
:10169000040101090208F0040404090205609090A5
:1016A000600707070901011010FE101000FE050673
:1016B000060902047098183060F80506060902044D
:1016C00070983018987003020209030760C0090A75
:1016D000140900FDE7006300630063006300670016
:1016E0007B80600060006000070B0B0901FF7ED467
:1016F0009494D474141414147E020202090303C0D7
:10170000C00304040902FD406020E004060609034A
:101710000460E0606060F005070709020270D88885
:10172000D87000F8070505090101D86C366CD80996
:101730000A140900006000E080610062006500FB9F
:101740000017002B004F808300090A140900006075
:1017500000E080610062006700FD80118023004688
:10176000000F800A0A1409FF0070009840308019A9
:10177000009A8075800B80158027C041800609097A
:101780000901FE3030003070C0C4CC7C090C18094F
:10179000000018000C0000007C001C003600360021
:1017A000220063007F006300F780090C1809000025
:1017B0000C00180000007C001C00360036002200DF
:1017C00063007F006300F780090C180900001C000B
:1017D000360000007C001C0036003600220063004A
:1017E0007F006300F780090C180900001A002C0024
:1017F00000007C001C0036003600220063007F00E1
:101800006300F780090C1809000024002400000080
:101810007C001C0036003600220063007F0063005D
:10182000F780090C180900001800240018007E0039
:101830001C0036003600220063007F006300F78042
:101840000909120900003F801C801C003D002F0088
:101850006D007C004C80DF80070D0D0901FC3A6EA5
:10186000C6C0C0C0C0663C10180838080C0C09007F
:1018700000180C00FF63636878686363FF080C0C52
:101880000900000C1800FF63636878686363FF0851
:101890000C0C0900001C3600FF6363687868636302
:1018A000FF080C0C090000242400FF6363687868BB
:1018B0006363FF060C0C090100603000FC3030301F
:1018C00030303030FC060C0C090100183000FC30C0
:1018D000303030303030FC060C0C090100386C0020
:1018E000FC30303030303030FC060C0C0901004840
:1018F0004800FC30303030303030FC080909090035
:1019000000FC666363F3636366FC090C180900005E
:101910001A002C000000E7806300730073006B0066
:101920006B0067006700F300080C0C09000030181A
:10193000003C66C3C3C3C3C3663C080C0C0900006B
:101940000C18003C66C3C3C3C3C3663C080C0C0937
:101950000000386C003C66C3C3C3C3C3663C080CBC
:101960000C0900003458003C66C3C3C3C3C3663CC3
:10197000080C0C0900002424003C66C3C3C3C3C385
:10198000663C06070709010184CC783078CC8408CE
:101990000A0A090000013E66CBCBD3D3E366BC093B
:1019A0000C1809000018000C000000F780630063A9
:1019B00000630063006300630063003E00090C18CD
:1019C0000900000C0018000000F78063006300634A
:1019D0000063006300630063003E00090C18090007
:1019E000001C0036000000F78063006300630063A2
:1019F000006300630063003E00090C180900001238
:101A00000012000000F7806300630063006300635E
:101A100000630063003E000A0C1809FF0006000C7A
:101A2000000000F3C06180330033001E000C000C86
:101A3000000C003F00080909090000F0607E6363A4
:101A4000667C60F00809090900003C66666C666304
:101A5000636BEE080A0A0900003018007C06067E57
:101A6000C6CE77080A0A0900000C18007C06067E1C
:101A7000C6CE77080A0A090000386C007C06067E8C
:101A8000C6CE77080A0A0900003458007C06067E94
:101A9000C6CE77080A0A0900002424007C06067EC8
:101AA000C6CE77080A0A0900001824187C06067EAC
:101AB000C6CE7709070E09000077001D8008807FD9
:101AC00080C800CD807700080B0B0900FC3D67C380
:101AD000C0C0633E10180838080A0A090000301810
:101AE000003C66C3FFC0673E080A0A0900000C18E4
:101AF000003C66C3FFC0673E080A0A0900001C36A6
:101B0000003C66C3FFC0673E080A0A09000024249F
:101B1000003C66C3FFC0673E060A0A090100603048
:101B200000F03030303030FC060A0A09010018306D
:101B300000F03030303030FC060A0A09010070D85D
:101B400000F03030303030FC060A0A090100484805
:101B500000F03030303030FC080A0A090000EC3860
:101B6000CC3E66C3C3C3663C090A140900001A00D0
:101B70002C000000EE00730063006300630063004C
:101B8000F780080A0A0900003018003C66C3C3C386
:101B9000663C080A0A0900000C18003C66C3C3C36F
:101BA000663C080A0A0900001C36003C66C3C3C331
:101BB000663C080A0A0900003458003C66C3C3C3E7
:101BC000663C080A0A0900002424003C66C3C3C31B
:101BD000663C080707090001181800FF00181808DC
:101BE00007070900003D66CFDBF366BC090A14094C
:101BF000000018000C000000E700630063006300B1
:101C0000630067003B80090A140900000C001800FB
:101C10000000E700630063006300630067003B802F
:101C2000090A140900001C0036000000E7006300E8
:101C300063006300630067003B80090A1409000029
:101C4000240024000000E7006300630063006300D9
:101C500067003B80090D1A0900FD06000C0000001A
:101C6000E38063006300360036001C001C0018008F
:101C700018007C00080C0C0900FDE0606E736363C3
:101C800063736E6060F0090D1A0900FD1200120006
:101C90000000E38063006300360036001C001C0077
:101CA000180018007C00FFD0FFE0FFC1FFD13FC04B
:101CB000FF14FFD23FC0FF14FFD0FFFE0000210041
:101CC000240027002A002D0030003300010100000D
:101CD000040107010A0100002200250028002B0052
:101CE0002E003100340002010000050108010B0143
:101CF000000020002300260029002C002F003200C5
:101D0000000100000301060109010505050507059D
:101D100008080808020202020A0A08080404040467
:101D20000101010101010101030303030303030393
:101D3000040707070C0C0C0C0C0C0C0C0202020222
:101D400006060606060606060B0B0B0B0B0B0B0B0B
:101D500001021020200808102040102040800201BD
:101D600002010804020101020408102040808040A2
:101D700020100804020180040201804020100804A1
:101D8000020108040201010204081020408001023F
:101D900004081020408000000A0B02090C0D0E08F8
:101DA0000703040100000000000000000000000024
:101DB0000000000000000000000000000000000023
:101DC00000001211100000000000000000000000E0
:101DD00000000000000000000000000001050700F6
:101DE000FF060115022720FFFF06FF06FF0800502F
:101DF000221656808080800080153353A0A0A00258
:101E0000555550F850F85002555570A07028700282
:101E1000465680902040901002455540A040A0506A
:101E20002513538080801226564080808080401287
:101E30002656804040404080123555A040E040A0EA
:101E40000255552020F82020113353604080044172
:101E500051F0122252C0C003445410204080123668
:101E60005640A0A0A0A04012365640C0404040E0DE
:101E70000246566090102040F0024656F010601066
:101E800090600246562060A0F02020024656F08066
:101E9000E01090600246566080E0909060024656E6
:101EA000F010202040400246566090609090600202
:101EB0004656609090701060122555C0C000C0C09A
:101EC00001365660600060408012355520408040E9
:101ED00020034353F000F01235558040204080121B
:101EE000365640A0204000400246566090B0B08078
:101EF00060024656609090F09090024656E090E066
:101F00009090E0024656609080809060024656E0D5
:101F100090909090E0024656F080E08080F002467B
:101F200056F080E0808080024656609080B09070CD
:101F30000246569090F0909090123656E040404005
:101F400040E002465610101010906002465690A0D5
:101F5000C0C0A0900246568080808080F002465625
:101F600090F0F090909002465690D0D0B0B0900291
:101F70004656609090909060024656E09090E080C7
:101F80008001475760909090D06010024656E090D4
:101F900090E0A09002465660904020906012365625
:101FA000E040404040400246569090909090600241
:101FB0004656909090906060024656909090F0F057
:101FC00090024656909060609090123656A0A0A065
:101FD000404040024656F010204080F0123656E055
:101FE00080808080E003445480402010123656E008
:101FF00020202020E016325240A0024151F016224B
:102000005280400244547090B0500246568080E0A6
:102010009090E00234546080806002465610107048
:1020200090907002445460B0C06002465620504008
:10203000E0404001455570906080700246568080B7
:10204000E09090901236564000C04040E011375763
:102050002000202020A0400246568080A0C0A090F2
:10206000123656C040404040E0024454A0F09090E8
:10207000024454E090909002445460909060014576
:1020800055E09090E08001455570909070100244AA
:1020900054E090808002445470C030E002465640C4
:1020A00040E040403002445490909070123454A06C
:1020B000A0A0400244549090F0F00244549060601C
:1020C000900145559090502040024454F02040F03B
:1020D0001236562040C04040202216568080808014
:1020E000808012365680406040408006425250A0A8
:1020F000FFFFFFFFFFFFFFFFFFFFFFFFFFFFFFFFF0
:10210000FFFFFFFFFFFFFFFFFFFFFFFFFFFFFFFFDF
:10211000FF080050221656800080808080014656BD
:102120002070A0A070200245553040E040B002551C
:10213000558870507088123656A0A040E04040226A
:10214000155580800080801137576080C0A06020C6
:10215000C0173151A00157577088A8C8A8887005CA
:10216000335360A060035353489048034252F01029
:10217000143151E00157577088E8C8C8887007418A
:1021800051F015335340A0400256562020F820202D
:10219000F8142454C04080C0142454C0C040C01659
:1021A00022524080014555909090E0800246567042
:1021B000D0D0505050142252C0C01122524080142E
:1021C000345440C040E005335340A0400353539083
:1021D00048900147578080809030701001475780A9
:1021E0008080B0102030014757C0C040D030701000
:1021F00012365640004080A040024656609090F053
:102200009090024656609090F090900246566090F2
:1022100090F09090024656609090F0909002465652
:10222000906090F09090024656606090F09090021E
:10223000465670A0B0E0A0B00147576090808090F3
:102240006040024656F080E08080F0024656F08002
:10225000E08080F0024656F080E08080F002465632
:10226000F080E08080F0123656E040404040E012BE
:102270003656E040404040E0123656E04040404094
:10228000E0123656E040404040E0024656E050D072
:102290005050E0024656B090D0B0B0900246566022
:1022A00090909090600246566090909090600246A8
:1022B000566090909090600246566090909090602A
:1022C00002465690609090906002445490606090F6
:1022D00002465670B0B0D0D0E00246569090909032
:1022E0009060024656909090909060024656909072
:1022F00090909060024656900090909060123656F2
:10230000A0A0A040404002465680E090E0808002BD
:1023100046566090A09090A002465640207090B023
:102320005002465620407090B050024656205070E1
:1023300090B05002465650A07090B0500246565091
:10234000007090B05002465660607090B0500244E9
:102350005470B0A0701135556080806040024656C0
:10236000402060B0C060024656204060B0C06002AD
:10237000465640A060B0C060024656A00060B0C0A3
:10238000601236568040C04040E01236564080C051
:102390004040E012365640A0C04040E0123656A001
:1023A00000C04040E00246564030609090600246D7
:1023B0005650A0E090909002465640206090906069
:1023C0000246562040609090600246566000609041
:1023D000906002465650A0609090600246565000B1
:1023E000609090600245556000F0006002445470B7
:1023F000B0D0E002465640209090907002465620A1
:102400004090909070024656600090909070024606
:102410005650009090907001475720409090502067
:102420004001465680E09090E08001475750009070
:1024300090502040B022F52811241FBECFEFD1E2EA
:10244000DEBFCDBF00E00CBF26E0AEEEB3E001C0C2
:102450001D92A739B207E1F713E0A0E0B2E0EAEE7F
:10246000F6E500E00BBF02C007900D92AE3EB1074B
:10247000D9F712E1CBE1D2E100E006C021970109D2
:10248000802FFE010E943629CA31D10780E008075B
:10249000A9F70E94B4230C94632B0C9400000895B8
:1024A00080E008950895089520915D0630915E06BC
:1024B0002817390799F190935E0680935D0600977F
:1024C00039F120917006FC01211129C03596E49163
:1024D000E09371060C96FC018491809372068091C2
:1024E0007106082E000C990B20917206821B91092F
:1024F00027FD939520917306203441F0829FC001FF
:10250000112426E0969587952A95E1F78093740625
:1025100080E592E190936F0680936E0608952130D6
:1025200031F43F96E491E09371064096D4CF3D9606
:10253000E491E09371060E96CECF8091350690918E
:102540003606891B990B08950895AF92BF92CF92DA
:10255000DF92EF92FF920F931F93CF93DF936C0163
:102560007B018B01040F151FEB015E01AE18BF0844
:10257000C017D10759F06991D601ED91FC910190F6
:10258000F081E02DC6011995892B79F7C501DF91FE
:10259000CF911F910F91FF90EF90DF90CF90BF9060
:1025A000AF900895FC01538D448D252F30E0842F8A
:1025B00090E0821B930B541710F0CF96089501976B
:1025C0000895FC01918D828D981761F0A28DAE0F58
:1025D000BF2FB11D5D968C91928D9F5F9F73928FDF
:1025E00090E008958FEF9FEF0895FC01918D828D0B
:1025F000981731F0828DE80FF11D858D90E00895D8
:102600008FEF9FEF0895FC01918D228D892F90E02F
:10261000805C9F4F821B91098F739927089582E9EF
:1026200095E00E94031321E0892B09F420E0822F1A
:102630000895FC01A48DA80FB92FB11DA35ABF4F57
:102640002C91848D90E001968F739927848FA689B1
:10265000B7892C93A089B1898C91837080648C9305
:10266000938D848D981306C00288F389E02D8081B4
:102670008F7D80830895EF92FF920F931F93CF93E6
:10268000DF93EC0181E0888F9B8D8C8D98131AC0AD
:10269000E889F989808185FF15C09FB7F894EE8994
:1026A000FF896083E889F9898081837080648083F1
:1026B0009FBF81E090E0DF91CF911F910F91FF903C
:1026C000EF900895F62E0B8D10E00F5F1F4F0F73E4
:1026D0001127E02E8C8D8E110CC00FB607FCFACF9F
:1026E000E889F989808185FFF5CFCE010E94191311
:1026F000F1CFEB8DEC0FFD2FF11DE35AFF4FF08270
:102700009FB7F8940B8FEA89FB8980818062CFCFD5
:10271000CF93DF93EC01888D8823B9F0AA89BB8918
:10272000E889F9898C9185FD03C0808186FD0DC003
:102730000FB607FCF7CF8C9185FFF2CF808185FF24
:10274000EDCFCE010E941913E9CFDF91CF9108950B
:1027500080E090E0892B29F00E940F1381110E94E4
:10276000000080E090E0892B49F080E090E0892B28
:1027700029F00E94000081110E94000080E090E09A
:10278000892B49F080E090E0892B29F00E9400001D
:1027900081110E94000080E090E0892B49F080E0E8
:1027A00090E0892B29F00E94000081110C94000018
:1027B00008958150823108F05AC0E82FF0E0882750
:1027C000EB51FC4E8F4F0C94362905140914F71366
:1027D000FD13011437140C14121416141C142014B5
:1027E00024142A142E143714321438143C148091F3
:1027F00080008F77809380000895809180008F7D86
:10280000F9CF80918000877FF5CF84B58F7784BD25
:10281000089584B58F7DFBCF8091B0008F77809332
:10282000B00008958091B0008F7DF9CF8091900025
:102830008F77809390000895809190008F7DF9CFDD
:1028400080919000877FF5CF8091A0008F77809353
:10285000A00008958091A0008F7DF9CF8091A00005
:10286000877FF5CF809120018F7780932001089595
:10287000809120018F7DF9CF80912001877FF5CF56
:102880001F93CF93DF93282F30E0F901EA56F24EE1
:102890008491F901E05BF24ED491F901E65FF24ECA
:1028A000C491CC23A9F0162F81110E94D913EC2FCB
:1028B000F0E0EE0FFF1FEA52F34EA591B4918FB7EF
:1028C000F894EC91111108C0D095DE23DC938FBFF2
:1028D000DF91CF911F910895DE2BF8CFCF93DF9337
:1028E00090E0FC01E05BF24E2491865F924EFC0189
:1028F00084918823D1F090E0880F991FFC01E45463
:10290000F34EA591B491FC01EA52F34EC591D491D6
:1029100061110EC09FB7F8948C91E22FE0958E2341
:102920008C932881E223E8839FBFDF91CF910895A4
:102930008FB7F894EC91E22BEC938FBFF6CF3FB7B3
:10294000F8948091E0049091E104A091E204B091A8
:10295000E30426B5A89B05C02F3F19F00196A11DE1
:10296000B11D3FBFBA2FA92F982F8827BC01CD01D9
:10297000620F711D811D911D42E0660F771F881F38
:10298000991F4A95D1F708958F929F92AF92BF9267
:10299000CF92DF92EF92FF924B015C010E949F1455
:1029A0006B017C010E949F146C197D098E099F099F
:1029B000683E734081059105A8F321E0821A9108D1
:1029C000A108B10888EEC80E83E0D81EE11CF11CF6
:1029D00081149104A104B10429F7FF90EF90DF90D6
:1029E000CF90BF90AF909F908F900895DC01169686
:1029F000ED91FC91179712968C91481B477081E0DE
:102A000090E001C0880F4A95EAF7E60FF11D30818A
:102A1000222319F0832B8083089580958323FBCF95
:102A2000FB014181DC0112962C911297421768F04C
:102A300013962C911397241740F0608115962C91D2
:102A4000621718F424810C94F6140895FC01808117
:102A50009281980F92832181921760F494819F5FF5
:102A600094839381890F821710F08FEF820F8383F5
:102A700081E0089580E00895FC01128280818150F8
:102A8000838314820895DB01ED91FC9119940F93D7
:102A90001F93CF93DF931F92CDB7DEB700915B06F4
:102AA00010915C06E0918A06F0918B0682E0199500
:102AB00030E020E04AE0B80189E596E00E94431545
:102AC000182FE0918A06F0918B0683E01995E0912A
:102AD0008A06F0918B0680E019951123B9F1609177
:102AE0005B0670915C069E012F5F3F4F46E489E5CF
:102AF00096E00E94431589818093590660915B0698
:102B000070915C069E012F5F3F4F47E489E596E098
:102B10000E944315898180935A0660915B067091EB
:102B20005C0630E020E048E489E596E00E94431529
:102B30008093640660915B0670915C062CE836E039
:102B400047E189E596E00E94431511E0812F0F903F
:102B5000DF91CF911F910F9108951F93CF93DF9332
:102B6000182FC0E0DFEF60915B0670915C06C093A8
:102B700075061093760610927806D093770625E7AF
:102B800036E04BE389E596E00E944315C85FC03804
:102B900051F7DF91CF911F910895FF920F931F93EB
:102BA000CF93DF93F82E162FC5E5D6E06E817F8197
:102BB00088A319A301E00BA38FEF8AA325E736E0D2
:102BC0004BE389E596E00E9443156E817F81F8A270
:102BD000185F19A30BA388EF8AA325E736E04BE320
:102BE00089E596E0DF91CF911F910F91FF900C94B2
:102BF00043150B96FC01849108950A96FC0184917B
:102C00000895FC01849108950E940116882321F003
:102C1000823011F083E0089586E00895FC01E60F0C
:102C2000F11D849190E0982F88273196E4918E0FC2
:102C3000911D089568E00C940E1666E00C940E1633
:102C40002EE93FE0009709F40895F9013197F1F773
:102C50000197F8CF90E0FC01EE0FFF1FE153FB4F0F
:102C60000190F081E02D89539B4FDC018C91908184
:102C7000662319F0892B8083089580958923FBCFE3
:102C8000860F911DFC0183A18F3F19F0642F0C94D6
:102C9000401408950F931F93CF938C01C62F8FB7C5
:102CA0008093C604F894617080E00E942A16C1FBEC
:102CB000662760F981E00E942A16C2FB662760F948
:102CC00082E00E942A16C3FB662760F983E00E9417
:102CD0002A16C4FB662760F984E00E942A16C5FB09
:102CE000662760F985E00E942A16C6FB662760F910
:102CF00086E00E942A166C2F661F6627661F87E0F3
:102D00000E942A168091C6048FBF41E064E0C8018A
:102D10000E94401684E090E00197F1F740E064E003
:102D2000C8010E94401688E290E0FC013197F1F75B
:102D30000197F1F7CF911F910F910895EF92FF92B4
:102D40001F93CF93DF93EC01142F7901615067300B
:102D500008F0E8C0E62FF0E08827EE54F94E8F4FD8
:102D60000C943629B916CE179917D017B317BF1779
:102D7000CB1788A590E0FC01E65FF24EE491F0E00D
:102D8000EE0FFF1FEA52F34E259134913093D00499
:102D90002093CF04FC01E05BF24EE491E093C70482
:102DA00089A590E0FC01E65FF24EE491F0E0EE0FC1
:102DB000FF1FEA52F34E259134913093D2042093B1
:102DC000D104FC01E05BF24EE491E093C8048AA5D3
:102DD00090E0FC01E65FF24EE491F0E0EE0FFF1FA1
:102DE000EA52F34E259134913093D4042093D304C6
:102DF000FC01E05BF24EE491E093C9048BA590E006
:102E0000FC01E65FF24EE491F0E0EE0FFF1FEA52A4
:102E1000F34E259134913093D6042093D504FC01D0
:102E2000E05BF24EE491E093CA048CA590E0FC01D3
:102E3000E65FF24EE491F0E0EE0FFF1FEA52F34E30
:102E4000259134913093D8042093D704FC01E05BA2
:102E5000F24EE491E093CB048DA590E0FC01E65F97
:102E6000F24EE491F0E0EE0FFF1FEA52F34E25918F
:102E700034913093DA042093D904FC01E05BF24EE4
:102E8000E491E093CC048EA590E0FC01E65FF24E65
:102E9000E491F0E0EE0FFF1FEA52F34E25913491DA
:102EA0003093DC042093DB04FC01E05BF24EE49100
:102EB000E093CD048FA590E0FC01E65FF24EE49133
:102EC000F0E0EE0FFF1FEA52F34E2591349130935C
:102ED000DE042093DD04FC01E05BF24EE491E0931C
:102EE000CE0488A98F3F41F061E00E946E1440E05B
:102EF0006DE0CE010E9440167E0183E2E80EF11CD7
:102F0000E096F70181917F018F3F49F061E00E94D7
:102F10006E1461E0F701319780810E944014CE1554
:102F2000DF0579F781E0DF91CF911F91FF90EF905E
:102F3000089541E0112319F0113059F440E062E0A6
:102F4000CE010E94401641E063E0CE010E9440168F
:102F5000E9CF41E0123009F040E062E0CE010E948A
:102F6000401640E0F1CF642FCE010E944A16DACF1E
:102F7000F70161917F01CE010E944A161150111193
:102F8000F7CFD0CFF7016491CE010E944A16FFEF30
:102F9000EF1AFF0A11501111F5CFC4CF61E0D5CF60
:102FA0008BA18F3F09F4BECF60E0CFCFDB01149639
:102FB000ED91FC9130E020E065E01994DB0114967E
:102FC000ED91FC9130E020E062E01994DB01149671
:102FD000ED91FC9130E020E063E019949F92AF9274
:102FE000BF92CF92DF92EF92FF920F931F93CF93F6
:102FF000DF937C018B01942E69018AE0481739F137
:1030000095E1491709F486C0F801C281D381F2E342
:103010009F1609F431C1F91508F4D3C085E198165B
:1030200009F42FC197E1991609F43BC1A4E19A1262
:10303000F7C0EE81FF818D818E0F9F2F911D119220
:103040008E179F07E1F7CE010E943C15E9C0DB0116
:103050001496ED91FC9130E020E04FEF61E0C70164
:10306000199580E096EAA92E9CE1B92EF501C4914C
:10307000811110C081E0CF3F49F04C2FB801C7014A
:103080000E94D617882309F4BFCF80E0BFEFAB1AA8
:10309000BB0AECCF4FEFCF3F89F3CE3F09F4B4CF5B
:1030A000C03F98F7C03E38F04C2F4F70B801C701B1
:1030B0000E94DE17EACFC03D38F04C2F4F70B801A8
:1030C000C7010E94E617E1CFC03CF8F0D801149682
:1030D000ED91FC9130E020E040E064E0C7011995FB
:1030E000C295C07FCE5FD0E0CE010E942016D801ED
:1030F0001496ED91FC9130E020E041E064E0C701DE
:103100001995CE010E942016C0CFC7FDBECF8C2FCF
:1031100090E0F8CFFB01C281D38140E0C7010E945B
:10312000DE1742E0B801C7010E94E6174C81486BE8
:10313000B801C7010E94D61740E4B801C7010E9438
:10314000D61741E0B801C7010E94DE172E813F81EA
:10315000D8011496ED91FC9140E466E0C701199501
:1031600040E0B801C7010E94E61740E0B801C7017E
:103170000E94DE1741E0B801C7010E94E6174C81AA
:10318000486BB801C7010E94D61740E4B801C701D7
:103190000E94D61741E0B801C7010E94DE172E81B8
:1031A0003F81205C3F4FD8011496ED91FC9140E4A3
:1031B00066E0C701199540E0B801C7010E94E61713
:1031C00023CFB6E49B1609F47BC0E7E49E1609F40E
:1031D0007BC0FBE39F1224C0D60111969C911197EE
:1031E00013968C9138E0390F813031F0833011F033
:1031F000392F02C0392F985021E04B81491708F42C
:1032000020E041E0391708F040E091E05A8135179D
:1032100008F490E0322F342B932379F4242369F4BB
:1032200081E0DF91CF911F910F91FF90EF90DF90A0
:10323000CF90BF90AF909F900895F601128100E06B
:10324000F12C843048F490E0FC01E45EFD4FF08006
:10325000885E9D4FDC010C9117FF04C0B601CE01C2
:103260000E941015F60180818F0D80838181800F6F
:103270008183110F89F7D4CFB601CE010E941015BA
:10328000CFCFCE010E942615882359F2EE81FF810F
:103290008D818E0F9F2F911D11928E179F07E1F741
:1032A000BFCFD6011C928A8111968C9311978D8184
:1032B000815012968C9312978B8113968C93B0CF7A
:1032C0008D81F6018083ACCF8981D6018C93A8CF04
:1032D0000F93FC010150040F84A996A9941788F05C
:1032E000081710F4041778F42150260F83A995A924
:1032F000961758F0281760F481E0261720F40F91F4
:103300000895081778F780E0FACF2817A8F7FBCFC1
:1033100081E0F5CF0F93CF93C82F0DE020E8482F21
:1033200060E089E596E00E946819882389F08C2F77
:103330000E94AD156C2F80E00E94CD156C2F8FE799
:103340000E94CD158CE08C0FCF910F910C94AD1590
:10335000CF910F9108955F926F927F928F929F927B
:10336000AF92BF92CF92DF92EF92FF920F931F9393
:10337000CF93DF93EC01C62E142FD22EEC80FD806C
:10338000C7010E940116082F8C819D810E9404169E
:10339000982EAA24AA94013011F48FE0A82E8C81D3
:1033A0009D810E94FD15082F8C819D810E94F91539
:1033B000B82E8C819D810E941A1620E62D1570F47E
:1033C000009761F0E80EF91E01E6BD14C0F4188AFA
:1033D0001B8A1C8A198A1A8A80E05AC08C819D81B6
:1033E0000E941D16E0E4ED1530F4009721F0E80E80
:1033F000F91E01E4EACFF1E1EF0EF11CE6CFB016C1
:1034000030F3892D90E0F70124912F3F39F4FFEF3D
:10341000EF1AFF0AB016D9F20F5FF5CFD0125FC0D6
:103420008C819D810E94011697012F5F3F4FF7010C
:10343000882319F0823009F03BC084918B8BF9010D
:1034400024912C8BF7013396E491E88BF7013496A5
:10345000E491E98BF7013596E491EA8BE114F104EC
:1034600009F4BACF8C819D810E940416A82EDB88B6
:10347000BC888989C80E1B198A89181B0B2D2D2D14
:10348000412F6C2DCE010E946819811131C08889AD
:10349000DF91CF911F910F91FF90EF90DF90CF9030
:1034A000BF90AF909F908F907F906F905F900895A6
:1034B0008491982F9F7092509A8B82958F70898BF0
:1034C000F9012491822F8F708C8B22952F702B8B7A
:1034D000F7013296E491E295EF70E88BBFCF329618
:1034E000E491EA21E80FF92FF11DEE0EFF1E92CFB5
:1034F000EA0CF11CF7E0DF0ED694D694D694012F97
:103500000B0D4E012CE1820E911C6D2C712C1017AD
:1035100009F4BDCF5C2C570112C0F50184916A817A
:103520007B815C8E1D8F1F8E8E8F94014BE3CE01AD
:103530000E944315FFEFAF1ABF0A28E0520E8A2DF2
:103540008E198D1550F3E60CF71C1F5FE0CFEF923C
:10355000FF920F931F93CF93DF93F82E062FE42E45
:10356000152FE0916E06F0916F0689E596E01995AA
:10357000080FCE2DD12F10E02991211108C0812FE5
:10358000DF91CF911F910F91FF90EF900895402F01
:103590006F2D89E596E00E94AB19F80E180FECCF5D
:1035A0002091A304260F3327331F21323105ECF479
:1035B00020912E05FC0190E080E0243069F082E04B
:1035C0000895A091A3042191AC014D575B4FA40F26
:1035D000B52FB11D2C930196861798F38091A30403
:1035E000680F6093A30480E0089581E0089510922D
:1035F0002E0581E080932D051092080561E084E19D
:103600000E94401461E085E10E944014E9EBF0E083
:1036100080818E7F808380818D7F808388E480930A
:10362000B80085E48093BC000895CF93DF9391E0C8
:10363000909382048823B9F0C091B800D091BA0069
:103640008091BC008A7B8093BC0060E084E10E9492
:10365000401460E085E10E9440140E94F71AD09364
:10366000BA00C093B800DF91CF9108950895E0911A
:10367000360680913506E81730F4F0E0E851FB4F4C
:10368000808190E008958FEF9FEF08959091360626
:10369000809135062FEF3FEF981748F4E92FF0E0BF
:1036A000E851FB4F208130E09F5F90933606C901BF
:1036B0000895CF92DF92EF92FF920F931F93CF93D3
:1036C000DF937C01CB018A0120915505222389F0EB
:1036D000EB016B01C40ED51ECC15DD0569F06991B7
:1036E000D701ED91FC910190F081E02DC701199572
:1036F000F3CF642F0E94D01AC801DF91CF911F91A0
:103700000F91FF90EF90DF90CF900895CF93DF93CC
:103710001F92CDB7DEB76983209155052223F9F0BA
:1037200020913306203258F021E030E0FC01338351
:10373000228390E080E00F90DF91CF9108958091F7
:103740003406E82FF0E0EC5CFA4F998190838F5FAC
:10375000809334068093330681E090E0ECCF61E003
:10376000CE0101960E94D01AF7CF8BE89FE00E940D
:10377000541240E852E06AE081E00E94A71A81E416
:1037800098E00E94541245E852E069E185E00E9409
:10379000A71A84EA91E00E94541249E952E061E2DA
:1037A00084E00E94A71A45EA52E06AE284E00E949F
:1037B000A71A41EB52E062E384E00E94A71A8CED65
:1037C0009DE10E9454124FEB52E060E481E00C94C2
:1037D000A71A10926B0510926A0510926505109257
:1037E0006405109269051092680581E080930B02D0
:1037F000089580910B02811116C080916605909109
:103800006705892B21F080910902833211F40C9411
:10381000E91B8A3241F410926905109268051092F2
:103820006B0510926A05089580910B02811129C0E1
:1038300060916605709167056115710521F08091B1
:103840000902833211F40C94E91B8A3221F410929C
:103850006B0510926A05615071096230710588F438
:103860008091800490918104880F991FFC01E25996
:10387000FB4F71836083805E9D4FFC0180810C94BF
:103880004014089520916805309169052130310573
:1038900091F401979093810480938004880F991F7D
:1038A000FC01E259FB4F81E020813181213031055B
:1038B00009F080E008952230310511F40296EACF34
:1038C0002330310539F70596E5CFDF92EF92FF926D
:1038D0000F931F93CF93DF93EC01D62E1CAD0BAD4E
:1038E0007C0184E0E80EF11CE98DFA8DC701199581
:1038F000412F480F2D2D602FC7010E94AB199BADA2
:10390000890F8BAF81E090E0DF91CF911F910F91F4
:10391000FF90EF90DF90089590E080E008950F937E
:103920001F93CF93DF93082F162FD42FC8E06D2F4E
:10393000661F6627661F802F0E944014DD0F61E01E
:10394000812F0E94401460E0812F0E944014C150DA
:1039500071F7DF91CF911F910F9108950F931F93EE
:10396000CF93DF93FC01048115810115110539F412
:10397000FB011082DF91CF911F910F91089541506B
:1039800051094017510708F48A01EB01FC016081DD
:103990007181A801CE010E94542BC00FD11F188243
:1039A000E9CF0F931F93CF93DF93EC018881998127
:1039B000009759F02A813B812617370730F081E0C4
:1039C000DF91CF911F910F9108958B016F5F7F4F12
:1039D0000E94632A009759F0998388831B830A8386
:1039E0002C813D81232B59F7FC011082E8CF80E028
:1039F000E7CFEF92FF920F931F93CF93DF93611561
:103A0000710541F480E0DF91CF911F910F91FF90FC
:103A1000EF90089541155105B1F07B01EC010C8147
:103A20001D81040F151FB8010E94D11C882351F37A
:103A3000288139818C819D81B701820F931F0E945B
:103A40004D2B1D830C8381E0DECFCF93DF93EC0100
:103A500088819981009711F00E94DA2919821882D1
:103A60001D821C821B821A82DF91CF910895CF9311
:103A7000DF93EC01FB0101900020E9F73197AF01E2
:103A8000461B570B0E94F91C811103C0CE010E94F6
:103A9000251DCE01DF91CF910895CF93DF93EC01E7
:103AA000FB0144815581608171810E94F91C811163
:103AB00003C0CE010E94251DCE01DF91CF91089554
:103AC000EF92FF920F931F93CF93DF93EC017B0153
:103AD0008A01BA010E94D11C81110BC0CE010E9443
:103AE000251DCE01DF91CF911F910F91FF90EF9097
:103AF00008951D830C83B701888199810E944D2B05
:103B0000F0CFFB0101900020E9F73197AF01461B90
:103B1000570B0C94601D0F931F93CF93DF93CDB77A
:103B2000DEB762970FB6F894DEBF0FBECDBF8C0133
:103B3000CB01F80111821082138212821582148245
:103B40004AE0BE016F5F7F4F0E940129BE016F5F97
:103B50007F4FC8010E94811D62960FB6F894DEBFA8
:103B60000FBECDBFDF91CF911F910F9108950F939D
:103B70001F93CF93DF9300D000D000D0CDB7DEB736
:103B80008C01862FF8011182108213821282158215
:103B900014824AE0BE016F5F7F4F90E00E940C29C3
:103BA000BE016F5F7F4FC8010E94811D29960FB62D
:103BB000F894DEBF0FBECDBFDF91CF911F910F9163
:103BC0000895CF93DF93EC01FB018617970749F027
:103BD000608171816115710541F0448155810E94B8
:103BE000601DCE01DF91CF9108950E94251DF9CF70
:103BF000FC011182108213821282158214820C94AD
:103C0000E11DFC011182108213821282158214823E
:103C1000FB0101900020E9F73197AF01461B570BDC
:103C20000C94601DFC0180819181009711F00C942F
:103C3000DA290895DF92EF92FF920F931F93CF93AB
:103C4000DF93CDB7DEB7E0970FB6F894DEBF0FBEB7
:103C5000CDBF8C01D62E7A0167EF72E0CE014F9670
:103C60000E94011EDD2031F063E073E0CE014F962B
:103C70000E94811D8BE89FE00E945412B701CE0183
:103C800047960E948B1D69ED72E0CE0101960E945D
:103C9000011EBE01695E7F4FCE0101960E944D1D3F
:103CA000BC01CE0185960E94F81DCE0101960E94AE
:103CB000121ECE0147960E94121E48E050E0BE013F
:103CC000695E7F4FCE0185960E94AE1CAE01495EB3
:103CD0005F4F6AE081E00E94A71A81E498E00E94A9
:103CE00054126FED72E0CE0101960E94011EB801E0
:103CF000CE0101960E944D1D67EE72E00E94371DB5
:103D0000BE01615E7F4F0E944D1DBC01CE018B96AE
:103D10000E94F81DCE0101960E94121E46E150E05D
:103D2000BE016F5F7F4FCE018B960E94AE1CAE012D
:103D30004F5F5F4F69E183E00E94A71A8BE10E9409
:103D40008A198AE20E948A1984EA91E00E94541238
:103D50004FEE52E064E284E00E94A71A4BEF52E07B
:103D600063E384E00E94A71A8CED9DE10E94541247
:103D700046E053E060E481E00E94A71ACE018B96F2
:103D80000E94121ECE0185960E94121ECE014F96F1
:103D90000E94121EE0960FB6F894DEBF0FBECDBF94
:103DA000DF91CF911F910F91FF90EF90DF900895D9
:103DB000CF93DF93CDB7DEB76E970FB6F894DEBF23
:103DC0000FBECDBF81E498E00E9454126091680557
:103DD00070916905CE0143960E948B1D69ED72E0DA
:103DE000CE0101960E94011EBE016D5E7F4FCE0185
:103DF00001960E944D1D60E273E00E94371DBC01D8
:103E0000CE0149960E94F81DCE0101960E94121E15
:103E1000CE0143960E94121E42E150E0BE016F5F48
:103E20007F4FCE0149960E94AE1CAE014F5F5F4F9F
:103E300069E18FE00E94A71A84EA91E00E9454127F
:103E40004BE253E061E284E00E94A71A4DE353E0A5
:103E50006AE284E00E94A71A4BE453E062E384E044
:103E60000E94A71A8CED9DE10E9454124AE553E08E
:103E700060E481E00E94A71ACE0149960E94121EBA
:103E80006E960FB6F894DEBF0FBECDBFDF91CF9117
:103E90000895EF92FF920F931F93CF93DF93CDB7C7
:103EA000DEB72C970FB6F894DEBF0FBECDBF8C01E6
:103EB0007B0162ED73E00E94011E8AE0E816F104C6
:103EC0002CF464E773E0C8010E94811DB701CE01A4
:103ED00007960E948B1DB801CE0101960E94F81D25
:103EE000BE01695F7F4FCE0101960E944D1DBC014E
:103EF000C8010E94E11DCE0101960E94121ECE0152
:103F000007960E94121EC8012C960FB6F894DEBFC9
:103F10000FBECDBFDF91CF911F910F91FF90EF901A
:103F20000895CF93DF93CDB7DEB76E970FB6F894B1
:103F3000DEBF0FBECDBF6091630570E06E54784F59
:103F4000CE0143960E948B1D60916205CE010D96B5
:103F50000E94B71D60916105CE0101960E94B71DB8
:103F6000BE016F5F7F4FCE0107960E94F81D66E786
:103F700073E0CE0107960E94371DBE01635F7F4F3D
:103F80000E944D1D66E773E00E94371DBE016D5E05
:103F90007F4F0E944D1DBC01CE0149960E94F81D25
:103FA000CE0107960E94121ECE0101960E94121E9B
:103FB000CE010D960E94121ECE0143960E94121E43
:103FC0004FE050E06FE775E0CE0149960E94AE1CCD
:103FD0008091600590E068E773E08130910511F110
:103FE0006CE773E082309105E9F060E873E08330BC
:103FF0009105C1F064E873E08430910599F068E8B8
:1040000073E08530910571F06CE873E086309105BE
:1040100049F060E973E08730910521F0892B31F494
:104020006FEC73E0CE0101960E94011E898D9A8D7E
:10403000009709F47EC069817A816115710509F4E0
:1040400076C04B8D5C8D2D813E814217530708F45D
:104050006EC00E944D2B8D819E819E8F8D8F1E8202
:104060001D82CE0101960E94121E44E050E06BE7D3
:1040700075E0CE0149960E94AE1C60915D0570E02E
:10408000CE0143960E94491F60915E0570E0CE010B
:104090000D960E94491F60915F0570E0CE01019668
:1040A0000E94491FBE016F5F7F4FCE0107960E949D
:1040B000F81D69E273E0CE0107960E94371DBE012C
:1040C000635F7F4F0E944D1D69E273E00E94371DC0
:1040D000BE016D5E7F4F0E944D1DBC01CE01499611
:1040E0000E94E11DCE0107960E94121ECE0101968C
:1040F0000E94121ECE010D960E94121ECE01439602
:104100000E94121E4FE050E06CE675E0CE01499629
:104110000E94AE1CCE0149960E94121E6E960FB6EA
:10412000F894DEBF0FBECDBFDF91CF9108950E94FE
:10413000DA2989819A819A8F898F8B819C819C8FC2
:104140008B8F8D819E819E8F8D8F1A8219821C820A
:104150001B8285CF85ED8093BC00809130059091C6
:104160003105A0913205B09133050796A11DB11D0F
:1041700023E0B695A795979587952A95D1F7209135
:10418000BC0024FD03C010922E0508954091300517
:10419000509131056091320570913305452B462BC6
:1041A000472B69F30097A105B10541F02AE22A9552
:1041B000F1F700C00197A109B109E1CF80912F0566
:1041C0000C94151B1F920F920FB60F9211240BB671
:1041D0000F922F933F934F935F936F937F938F93A0
:1041E0009F93AF93BF93EF93FF9382E995E00E9473
:1041F0001913FF91EF91BF91AF919F918F917F9193
:104200006F915F914F913F912F910F900BBE0F9047
:104210000FBE0F901F9018951F920F920FB60F921E
:1042200011240BB60F922F938F939F93EF93FF93CD
:10423000E091A205F091A3058081E091A805F0919D
:10424000A90582FD1DC090818091AB058F5F8F73A2
:104250002091AC05821741F0E091AB05F0E0EE56FD
:10426000FA4F958F8093AB05FF91EF919F918F91BE
:104270002F910F900BBE0F900FBE0F901F901895AF
:104280008081F2CF1F920F920FB60F9211242F93BD
:104290003F938F939F93AF93BF938091E40490914A
:1042A000E504A091E604B091E7043091DF0423E037
:1042B000230F2D3758F50196A11DB11D2093DF0462
:1042C0008093E4049093E504A093E604B093E7049C
:1042D0008091E0049091E104A091E204B091E304A4
:1042E0000196A11DB11D8093E0049093E104A09379
:1042F000E204B093E304BF91AF919F918F913F91FE
:104300002F910F900FBE0F901F90189526E8230F46
:104310000296A11DB11DD2CF1F920F920FB60F9220
:1043200011240BB60F922F933F934F935F936F938C
:104330007F938F939F93AF93BF93EF93FF9380915E
:10434000B900887F803609F44DC008F040C088323B
:1043500009F4A9C028F5803109F49DC0C8F4882368
:1043600009F4FBC0883009F496C0FF91EF91BF912A
:10437000AF919F918F917F916F915F914F913F91FD
:104380002F910F900BBE0F900FBE0F901F9018959E
:10439000883109F488C0803241F780932C0514C01D
:1043A000803409F49DC040F48033B9F38833E9F6D2
:1043B00080932C0585ECB0C0803509F485C0883524
:1043C00009F496C0883489F60E94AA20CECF883995
:1043D00009F48CC038F5883729F050F4883611F08C
:1043E000803719F683E080932E051092C50457C0DC
:1043F000883809F47BC0803919F0803809F0B5CFCE
:104400008091C504803208F071C0E091C50481E05C
:104410008E0F8093C5048091BB00F0E0EB55FB4FFD
:1044200080833DC0803B39F0E0F4803A09F479C0E4
:10443000883A09F09ACF84E080932E051092A40464
:104440001092A304E0913106F09132061995809103
:10445000A30481110FC081E08093A3041092830410
:1044600009C0803C09F4A6CF883C09F4A3CF883B5F
:1044700009F07BCFE091A40481E08E0F8093A40427
:10448000F0E0ED57FB4F80818093BB009091A40436
:104490008091A30429C0809109058093BB0085EC1D
:1044A0008093BC0062CF90912B0580912A059817CC
:1044B00058F5E0912B0581E08E0F80932B05F0E0FD
:1044C000E65FFA4F8081E9CFE0912B0581E08E0F06
:1044D00080932B058091BB00F0E0E65FFA4F80836C
:1044E00090912B0580912A059817C8F285E8D8CFBE
:1044F000E0912B0581E08E0F80932B058091BB000E
:10450000F0E0E65FFA4F808380912D0581115CCF4A
:1045100081E08093080584EA8093BC0010922E0508
:1045200024CF85EC8093BC0010922E058091C504A9
:10453000803230F4E091C504F0E0EB55FB4F10827F
:104540006091C50470E0E0912F06F091300685EA95
:1045500094E019951092C50408CF10922C0534CF21
:10456000CF92DF92EF92FF921092950510929405F0
:1045700088EEC82E83E0D82EE12CF12CC09296054F
:10458000D0929705E0929805F092990584E592E023
:10459000909393058093920585EC90E090939F050E
:1045A00080939E0584EC90E09093A1058093A005F4
:1045B00080EC90E09093A3058093A20581EC90E0BD
:1045C0009093A5058093A40582EC90E09093A705B5
:1045D0008093A60586EC90E09093A9058093A805AA
:1045E0001092AB051092AC051092AD051092AE057D
:1045F0001092360610923506109234061092330649
:104600000E94F71A82E592E1909332068093310678
:1046100083E592E19093300680932F0610923A063C
:1046200010923906C0923B06D0923C06E0923D06BD
:10463000F0923E0686E692E0909338068093370625
:10464000109258061092570688E792E0909356060B
:104650008093550610929006109291061092920641
:1046600010925E0610925D061092600610925F0630
:104670001092620681E08093610682E28093630675
:104680001092680610926706ECE7F6E02AE836E03A
:104690008FEF81932E173F07E1F791E09093790612
:1046A00020E532E130936F0620936E0690937006FA
:1046B000109271061092720690E490937306109215
:1046C00074062FE432E130938B0620938A062CE0A7
:1046D00032E030935C0620935B0696E3909381066C
:1046E00097E39093820698E39093830699E39093DF
:1046F00084069AE3909385069BE3909386069CE359
:10470000909387069DE3909388069DE090938006A2
:104710009CE090937E069BE090937F0699E09093B7
:104720007D0698E09093890680937C060E94471549
:1047300088E792E0909356068093550664E973E00B
:104740008FE496E00E94011E68E473E089E496E03D
:104750000E94011E66E573E083E496E0FF90EF900F
:10476000DF90CF900C94011ECF93DF9300D000D048
:104770001F92CDB7DEB7789484B5826084BD84B5CE
:10478000816084BD85B5826085BD85B5816085BD4C
:1047900080916E00816080936E0010928100809104
:1047A000810082608093810080918100816080938C
:1047B0008100809180008160809380008091B100B1
:1047C00084608093B1008091B00081608093B000DC
:1047D000809191008260809391008091910081602E
:1047E00080939100809190008160809390008091EF
:1047F000A10082608093A1008091A10081608093DC
:10480000A1008091A00081608093A000809121018F
:104810008260809321018091210181608093210138
:104820008091200181608093200180917A008460D2
:1048300080937A0080917A00826080937A008091E0
:104840007A00816080937A0080917A0080688093FA
:104850007A001092C100E091A205F091A30582E0D8
:104860008083E0919E05F0919F051082E091A00564
:10487000F091A1058FEC80831092AA05E091A60526
:10488000F091A70586E08083E091A405F091A5054D
:10489000808180618083E091A405F091A5058081ED
:1048A00088608083E091A405F091A50580818068EF
:1048B0008083E091A405F091A50580818F7D8083A0
:1048C00011E0109392060E9447151093790600E2BA
:1048D00012E0F801F0800E5F1F4F61E08F2D0E9403
:1048E0006E1460E08F2D0E944014F2E002331F0727
:1048F00081F761E083E00E946E1461E082E00E9433
:104900006E1461E084E00E946E1460E085E00E9415
:104910006E1464E670E080E090E00E94C4140E948F
:10492000911F11E0E5E54E2EEDE15E2EFFE08F2EAA
:10493000FDE19F2EA8E57A2E80919206811104C098
:10494000109392060E944715E0905B06F0905C067B
:10495000E0918A06F0918B0682E01995E0918A0633
:10496000F0918B0681E0199530E020E044E1B70139
:1049700089E596E00E9443152CE836E047E1B7014F
:1049800089E596E00E944315E0918A06F0918B0636
:1049900080E019950AE066246A9460E4A62E62E03D
:1049A000B62E72E3E72E72E0F72E60E083E00E94FD
:1049B000401440E062E084E00E948F1CF5014081D9
:1049C000F2E0AF0EB11C62E084E00E948F1C61E057
:1049D00083E00E94401461E082E00E94401460E0A5
:1049E00083E00E94401457E0C52ED12C212C61E0B9
:1049F00082E00E944014EBE9FDE18491F201F49120
:104A0000FF83F4013490332099F181110E94D9136E
:104A1000E32DF0E0EE0FFF1FE051F34EA591B491AE
:104A20008C91FF818F2331E009F430E0832F0C2C2F
:104A300001C0880F0A94EAF7282A60E082E00E9409
:104A4000401421E0C21AD10890F620920A0261E0D7
:104A500083E00E94401490E2291609F40FC19215D8
:104A600048F0E0E12E1609F40CC110930B020FC0C0
:104A700080E0DDCFF0E42F1609F4FDC020E822121B
:104A8000F4CFF70180818093090210920B0280918C
:104A90000B02882349F0FFEFEF1AFF0A25E3E21625
:104AA00022E0F20609F081CFF0900902909108020D
:104AB000E8E5FE1609F4E8C09F1509F4E8C06F2D7B
:104AC00082E995E00E943B13FAE2FF1691F023E29F
:104AD000F21679F08F2D0F2C000C990BC097909344
:104AE00067058093660562E370E080E090E00E94D5
:104AF000C414F09208028CED9DE10E9454128FB70D
:104B0000F8944091E4045091E5046091E6047091BA
:104B1000E7048FBF80918E0590918F05A09190053D
:104B2000B091910588589F4FAF4FBF4F841795079D
:104B3000A607B70708F050C22FB7F8948091E40495
:104B40009091E504A091E604B091E7042FBF809313
:104B50008E0590938F05A0939005B09391051093C7
:104B6000550588E68093540510923406109233065A
:104B700060E087E396E00E94861BB090330690E2E7
:104B8000FF24F3949B1508F4B1C00E949F146B019D
:104B90007C0180912E05811182C082E080932E05D8
:104BA00010932D0560922C0510922B05B0922A05CA
:104BB000A4E3B5E0EAE0F5E080E0B812BAC01092F4
:104BC000090580910905806D80930905809108058C
:104BD000813009F0B2C0109208050E949F146B0149
:104BE0007C01809109058093BB00809130059091F4
:104BF0003105A0913205B0913305892B8A2B8B2B7F
:104C0000A1F00E949F142091300530913105409110
:104C10003205509133056C197D098E099F092617BD
:104C200037074807590708F45BC08091BC0083FD33
:104C3000D8CF85EC8093BC000E949F146B017C014F
:104C400080912E05823009F47AC080912C05F12CD8
:104C50008F3F09F44BC080912C0592E0F92E8032F1
:104C600009F444C080912C0523E0F22E8033F1F149
:104C700084E0F82E3BC0F701838105CFF7018681E0
:104C800002CFF7018185FFCE983509F034CF882314
:104C900009F431CF70920902709208022CCF8091F2
:104CA000300590913105A0913205B0913305892BE3
:104CB0008A2B8B2B09F46DCF0E949F142091300515
:104CC0003091310540913205509133056C197D09C1
:104CD0008E099F09261737074807590708F059CF4B
:104CE00080912F050E94151B35E0F32E109234069B
:104CF0001092330610925505FF2009F442C010921D
:104D000056058091560549E953E06DE0882309F482
:104D1000ACC18DE00E94A71A40EB53E06AE18DE040
:104D20000E94A71A64E670E080E090E00E94C4143C
:104D300053C19D9191938F5F40CF85EE7BCF809142
:104D4000300590913105A0913205B0913305892B42
:104D50008A2B8B2B09F474CF0E949F14209130056D
:104D60003091310540913205509133056C197D0920
:104D70008E099F09261737074807590708F060CFA3
:104D8000AFCF109356050E949F145B016C01809178
:104D90002E05811162C010932E0510932D0560928F
:104DA0002C0510922B05E6E0E0932A0510930905E7
:104DB00080910905806D80930905809108058130F7
:104DC00009F02DC1109208050E949F145B016C012F
:104DD000809109058093BB00809130059091310549
:104DE000A0913205B0913305892B8A2B8B2BA1F032
:104DF0000E949F1420913005309131054091320579
:104E0000509133056A197B098C099D0926173707CC
:104E10004807590708F442C08091BC0083FDD8CFF1
:104E200085EC8093BC000E949F145B016C01809113
:104E30002E05813009F4F5C080912B05873008F0EC
:104E400012C180912B05EAE0F5E0A8EEB4E0F81677
:104E500049F191919D93F394FACF8091300590910F
:104E60003105A0913205B0913305892B8A2B8B2B0C
:104E700009F48DCF0E949F142091300530913105A7
:104E800040913205509133056A197B098C099D09BF
:104E9000261737074807590708F079CF80912F0563
:104EA0000E94151B10923606F0923506F6E0FF15AB
:104EB00008F027CF87E396E00E94461BF82E982F34
:104EC000929597708F2D8F70909F800D11248093F5
:104ED0005D0587E396E00E94461B982F92959F7090
:104EE0008F70909F800D112480935E0587E396E07C
:104EF0000E94461B982F929593708F70909F800D03
:104F0000112480935F0587E396E00E94461B982F4B
:104F100092959F708F70909F800D112480936005F3
:104F200087E396E00E94461B982F92959F708F70A2
:104F3000909F800D11248093610587E396E00E9485
:104F4000461B982F92959F708F70909F800D112413
:104F50008093620587E396E00E94461B982F9F701E
:104F6000925E82958F70809F900D112490936305BF
:104F7000F7FCC7CE20915F0580915B0590915C05A1
:104F80002817190691F420915E058091590590919A
:104F90005A052817190649F420915D058091570597
:104FA0009091580528171906B9F00E94911F809119
:104FB0005F0590E090935C0580935B0580915E05B2
:104FC00090E090935A058093590580915D0590E09B
:104FD00090935805809357054FE755E067E08CE4C0
:104FE0000E94A71A4BE755E067E087E30E94A71AE3
:104FF0004CE655E06EE08CE40E94A71A80916A05A9
:1050000090916B058130910509F4C7C0A4F5892BF7
:1050100009F443C00E94E91B0E94B51BB3C085EE92
:1050200000CF8091300590913105A0913205B0916B
:105030003305892B8A2B8B2B09F4F9CE0E949F1400
:105040002091300530913105409132055091330562
:105050006A197B098C099D092617370748075907E4
:1050600008F0E5CE1BCF87E0EECE8DE00E94A71AB8
:1050700041EC53E053CE8230910509F4AAC0039766
:1050800049F6E0906805F090690583E090E00E94A1
:10509000421CD82E63E476E08BC080910B02811114
:1050A00010C0209166053091670580916805909148
:1050B00069050197039708F048C030936B0520936A
:1050C0006A058091640590916505009709F042C0DA
:1050D0000E94B51B1092690510926805E091670661
:1050E000F0916806309719F089E596E01995E090FF
:1050F0005B06F0905C06E0918A06F0918B0682E0F8
:105100001995E0918A06F0918B0681E0199530E0BF
:1051100020E045E1B70189E596E00E944315D82ECD
:10512000882341F02CE836E047E1B70189E596E0B5
:105130000E944315E0918A06F0918B0680E0199554
:10514000D1102BCC0E94A813F7CB30936505209388
:105150006405B7CF8130910549F490936905809338
:1051600068050E94D81E0E94F91BB8CF82309105B5
:10517000A1F38330910589F30E94B51B1092690554
:10518000109268058CED9DE10E94541243ED53E0AE
:1051900069E381E00E94A71AA1CFE0906805F09032
:1051A000690581E090E00E94421CD82E6FE476E011
:1051B000CE0101960E94F81DA7016D2DCE0101962A
:1051C0000E941A1ECE0101960E94121E0E94141CFB
:1051D00085CFE0906805F090690582E090E00E943C
:1051E000421CD82E69E476E0E3CF83E496E00E9487
:1051F000121E89E496E00E94121E8FE496E00C9441
:10520000121EBB274A3031F4992322F4BDE2909557
:1052100081959F4F0C940D29BB27FB015527AA2789
:10522000880F991FAA1FA41710F0A41B8395505133
:10523000B9F7A05DAA3308F0A95DA193009779F7AB
:10524000B111B1931192CB010C942629DC01FC0120
:10525000672F71917723E1F7329704C07C916D93AA
:1052600070836291AE17BF07C8F30895EE0FFF1F5A
:10527000881F8BBF0790F691E02D19940F931F9311
:10528000CF93DF938230910510F482E090E0E091BB
:105290009506F091960630E020E0B0E0A0E030976F
:1052A00099F42115310509F44AC0281B390B243023
:1052B0003105D8F58A819B816115710589F1FB0162
:1052C00093838283FE0111C0408151810281138149
:1052D00048175907E0F04817590799F4109761F0FB
:1052E00012960C93129713961C933296CF01DF916E
:1052F000CF911F910F9108950093950610939606F4
:10530000F4CF2115310551F04217530738F0A901A8
:10531000DB019A01BD01DF01F801C1CFEF01F9CF37
:105320009093960680939506CDCFFE01E20FF31F72
:10533000819391932250310939832883D7CF2091CB
:10534000930630919406232B41F42091140230915E
:105350001502309394062093930620911202309107
:1053600013022115310541F42DB73EB740911602C5
:1053700050911702241B350BE0919306F09194068F
:10538000E217F307A0F42E1B3F0B2817390778F01C
:10539000AC014E5F5F4F2417350748F04E0F5F1F7B
:1053A0005093940640939306819391939FCFF0E09E
:1053B000E0E09CCFCF93DF930097E9F0FC013297B8
:1053C00013821282A0919506B0919606ED0130E00D
:1053D00020E01097A1F420813181820F931F20914A
:1053E0009306309194062817390709F061C0F093AD
:1053F0009406E0939306DF91CF910895EA01CE17CA
:10540000DF07E8F54A815B819E0141155105B1F73F
:10541000E901FB83EA8349915991C40FD51FEC1729
:10542000FD0761F4808191810296840F951FE90147
:1054300099838883828193819B838A83F0E0E0E073
:1054400012968D919C9113970097B9F52D913C91EF
:105450001197CD010296820F931F209193063091F0
:1054600094062817390739F6309751F510929606A9
:1054700010929506B0939406A0939306BCCFD38365
:10548000C28340815181840F951FC817D90761F4E9
:105490004E5F5F4F88819981480F591F5183408328
:1054A0008A819B81938382832115310509F0B0CFD6
:1054B000F0939606E09395069ECFFD01DC01C0CFE8
:1054C00013821282D7CF4F925F926F927F928F9208
:1054D0009F92AF92BF92CF92DF92EF92FF920F9383
:1054E0001F93CF93DF938C01009799F4CB01DF9149
:1054F000CF911F910F91FF90EF90DF90CF90BF90D1
:10550000AF909F908F907F906F905F904F900C9492
:105510003E29FC01E60FF71F9C0122503109E217DA
:10552000F30708F4AEC0D901CD91DC911197C617ED
:10553000D70720F1C530D10578F0CE010497861742
:10554000970750F0C61BD70B2297C193D1936D9349
:105550007C93CF010E94DA29C801DF91CF911F917E
:105560000F91FF90EF90DF90CF90BF90AF909F9002
:105570008F907F906F905F904F9008955B01AC1A71
:10558000BD0A4C018C0E9D1EA0919506B091960609
:10559000512C412CF12CE12C109731F58091930680
:1055A000909194068815990509F05CC04616570637
:1055B00008F058C08091120290911302009741F4B4
:1055C0008DB79EB74091160250911702841B950B20
:1055D000E817F90708F055C0F0939406E093930696
:1055E000F90171836083B8CF8D919C9111971296C8
:1055F0006C90129713967C901397A815B90559F5DE
:105600006C0142E0C40ED11CCA14DB0420F1AC01D1
:105610004A195B09DA011296159780F0628273824B
:1056200051834083D9016D937C93E114F10471F0AF
:10563000D7011396FC93EE9312978ECF22968C0F80
:105640009D1FF90191838083F301EFCFF0939606BC
:10565000E093950681CF4816590608F42C017D0188
:10566000D3019ACFCB010E943E297C01009749F0DB
:10567000AE01B8010E94442BC8010E94DA298701BB
:105680006BCF10E000E068CFFB01DC0102C00190AD
:105690000D9241505040D8F70895FB01DC01019074
:1056A0000D920020E1F70895FB01DC0141505040CC
:1056B00048F001900D920020C9F701C01D924150A1
:1056C0005040E0F7089512E1CBE1D2E100E006C0DE
:1056D000802FFE010E9436292196011DCC31D10771
:0A56E00080E00807A9F7F894FFCF57
:1056EA00084000000080EE0358584801EE170002F7
:1056FA009E16000097068000000100FF0100FF00CF
:10570A00170019001B00270029002B003100330065
:10571A0035003132333435363738392A30230000F0
:10572A000100020004000800100020004000800070
:10573A00000000003B13A512D21288130313E112D2
:10574A00F51200000000861B591B8C1C361B9D128B
:10575A00461B371B00000000651CA5128C1CA412F6
:10576A004D454E5500534D41525420484F555345CF
:10577A0020434F4E54524F4C00312E20526F6F6DC2
:10578A00204F6E6500322E20526F6F6D2074776F36
:10579A0000332E20526F6F6D207468726565002A7F
:1057AA00506C656173652073656C656374206F6EF8
:1057BA00206B65797061642A00524F4F4D20005466
:1057CA006F67676C6520002073746174653A0031F5
:1057DA002E205455524E204F464600322E20545504
:1057EA00524E204F4E005345543A20282A2920422F
:1057FA0041434B204F522028232920484F4D450032
:10580A0020434F4E54524F4C533A00312E20436F8F
:10581A006E74726F6C204C696768747300322E2044
:10582A00436F6E74726F6C20545600332E20436F90
:10583A006E74726F6C2046414E002A202020202070
:10584A0020202028232920484F4D45202020202091
:10585A0020202A0030002F0053554E004D4F4E0095
:10586A00545545005745440054485500465249008E
:10587A00534154004C414D500052544320436C6FE5
:10588A00636B20696E6974206661696C7572650064
:10589A00506C65617365207365742054696D652069
:1058AA0000436865636B20776972696E6720202000
:1058BA002020002A2A20496E76616C6964204B6593
:0E58CA00792073656C65637465642A2A00009A
:00000001FF
